{
  "contractName": "HealthcareSystem",
  "abi": [
    {
      "inputs": [],
      "stateMutability": "nonpayable",
      "type": "constructor"
    },
    {
      "anonymous": false,
      "inputs": [
        {
          "indexed": true,
          "internalType": "uint256",
          "name": "insuranceId",
          "type": "uint256"
        },
        {
          "indexed": false,
          "internalType": "uint256",
          "name": "policyNo",
          "type": "uint256"
        },
        {
          "indexed": false,
          "internalType": "address",
          "name": "patientAddress",
          "type": "address"
        }
      ],
      "name": "InsuranceAdded",
      "type": "event"
    },
    {
      "inputs": [],
      "name": "appliedInsuranceCount",
      "outputs": [
        {
          "internalType": "uint256",
          "name": "",
          "type": "uint256"
        }
      ],
      "stateMutability": "view",
      "type": "function"
    },
    {
      "inputs": [
        {
          "internalType": "uint256",
          "name": "",
          "type": "uint256"
        }
      ],
      "name": "appliedInsurances",
      "outputs": [
        {
          "internalType": "uint256",
          "name": "appliedId",
          "type": "uint256"
        },
        {
          "internalType": "uint256",
          "name": "policyNo",
          "type": "uint256"
        },
        {
          "internalType": "address",
          "name": "patientAddr",
          "type": "address"
        },
        {
          "internalType": "address",
          "name": "doctorAddr",
          "type": "address"
        },
        {
          "internalType": "address",
          "name": "pharmacyAddr",
          "type": "address"
        },
        {
          "internalType": "address",
          "name": "hospitalAddr",
          "type": "address"
        },
        {
          "internalType": "bool",
          "name": "hospitalApproval",
          "type": "bool"
        },
        {
          "internalType": "bool",
          "name": "pharmacyApproval",
          "type": "bool"
        },
        {
          "internalType": "bool",
          "name": "isClaimed",
          "type": "bool"
        }
      ],
      "stateMutability": "view",
      "type": "function"
    },
    {
      "inputs": [],
      "name": "billCount",
      "outputs": [
        {
          "internalType": "uint256",
          "name": "",
          "type": "uint256"
        }
      ],
      "stateMutability": "view",
      "type": "function"
    },
    {
      "inputs": [
        {
          "internalType": "uint256",
          "name": "",
          "type": "uint256"
        }
      ],
      "name": "bills",
      "outputs": [
        {
          "internalType": "uint256",
          "name": "billId",
          "type": "uint256"
        },
        {
          "internalType": "string",
          "name": "drugName",
          "type": "string"
        },
        {
          "internalType": "uint256",
          "name": "drugCount",
          "type": "uint256"
        },
        {
          "internalType": "uint256",
          "name": "cost",
          "type": "uint256"
        },
        {
          "internalType": "address",
          "name": "patientAddress",
          "type": "address"
        },
        {
          "internalType": "address",
          "name": "pharmacyAddress",
          "type": "address"
        }
      ],
      "stateMutability": "view",
      "type": "function"
    },
    {
      "inputs": [],
      "name": "doctorCount",
      "outputs": [
        {
          "internalType": "uint256",
          "name": "",
          "type": "uint256"
        }
      ],
      "stateMutability": "view",
      "type": "function"
    },
    {
      "inputs": [
        {
          "internalType": "uint256",
          "name": "",
          "type": "uint256"
        }
      ],
      "name": "doctors",
      "outputs": [
        {
          "internalType": "string",
          "name": "name",
          "type": "string"
        },
        {
          "internalType": "uint256",
          "name": "doctorId",
          "type": "uint256"
        },
        {
          "internalType": "string",
          "name": "specialization",
          "type": "string"
        },
        {
          "internalType": "uint256",
          "name": "phone",
          "type": "uint256"
        },
        {
          "internalType": "address",
          "name": "doctorAddress",
          "type": "address"
        }
      ],
      "stateMutability": "view",
      "type": "function"
    },
    {
      "inputs": [],
      "name": "hospitalCount",
      "outputs": [
        {
          "internalType": "uint256",
          "name": "",
          "type": "uint256"
        }
      ],
      "stateMutability": "view",
      "type": "function"
    },
    {
      "inputs": [
        {
          "internalType": "uint256",
          "name": "",
          "type": "uint256"
        }
      ],
      "name": "hospitals",
      "outputs": [
        {
          "internalType": "string",
          "name": "hospitalName",
          "type": "string"
        },
        {
          "internalType": "address",
          "name": "hospitalAddress",
          "type": "address"
        },
        {
          "internalType": "string",
          "name": "hospitalSpec",
          "type": "string"
        }
      ],
      "stateMutability": "view",
      "type": "function"
    },
    {
      "inputs": [],
      "name": "insuranceCount",
      "outputs": [
        {
          "internalType": "uint256",
          "name": "",
          "type": "uint256"
        }
      ],
      "stateMutability": "view",
      "type": "function"
    },
    {
      "inputs": [
        {
          "internalType": "uint256",
          "name": "",
          "type": "uint256"
        }
      ],
      "name": "insurances",
      "outputs": [
        {
          "internalType": "uint256",
          "name": "policyNo",
          "type": "uint256"
        },
        {
          "internalType": "string",
          "name": "insurerName",
          "type": "string"
        },
        {
          "internalType": "address",
          "name": "insurerAddress",
          "type": "address"
        },
        {
          "internalType": "string",
          "name": "description",
          "type": "string"
        },
        {
          "internalType": "uint256",
          "name": "policyLimit",
          "type": "uint256"
        },
        {
          "internalType": "address",
          "name": "insuranceAddress",
          "type": "address"
        },
        {
          "internalType": "address",
          "name": "patientAddress",
          "type": "address"
        }
      ],
      "stateMutability": "view",
      "type": "function"
    },
    {
      "inputs": [],
      "name": "owner",
      "outputs": [
        {
          "internalType": "address",
          "name": "",
          "type": "address"
        }
      ],
      "stateMutability": "view",
      "type": "function"
    },
    {
      "inputs": [],
      "name": "patientCount",
      "outputs": [
        {
          "internalType": "uint256",
          "name": "",
          "type": "uint256"
        }
      ],
      "stateMutability": "view",
      "type": "function"
    },
    {
      "inputs": [
        {
          "internalType": "uint256",
          "name": "",
          "type": "uint256"
        }
      ],
      "name": "patients",
      "outputs": [
        {
          "internalType": "string",
          "name": "name",
          "type": "string"
        },
        {
          "internalType": "uint256",
          "name": "patientId",
          "type": "uint256"
        },
        {
          "internalType": "uint256",
          "name": "age",
          "type": "uint256"
        },
        {
          "internalType": "string",
          "name": "gender",
          "type": "string"
        },
        {
          "internalType": "string",
          "name": "height",
          "type": "string"
        },
        {
          "internalType": "string",
          "name": "weight",
          "type": "string"
        },
        {
          "internalType": "address",
          "name": "patientAddress",
          "type": "address"
        },
        {
          "internalType": "uint256",
          "name": "phone",
          "type": "uint256"
        },
        {
          "internalType": "string",
          "name": "email",
          "type": "string"
        },
        {
          "internalType": "uint256",
          "name": "hospitalId",
          "type": "uint256"
        },
        {
          "internalType": "uint256",
          "name": "doctorId",
          "type": "uint256"
        },
        {
          "internalType": "uint256",
          "name": "policyNo",
          "type": "uint256"
        }
      ],
      "stateMutability": "view",
      "type": "function"
    },
    {
      "inputs": [],
      "name": "reportCount",
      "outputs": [
        {
          "internalType": "uint256",
          "name": "",
          "type": "uint256"
        }
      ],
      "stateMutability": "view",
      "type": "function"
    },
    {
      "inputs": [
        {
          "internalType": "uint256",
          "name": "",
          "type": "uint256"
        }
      ],
      "name": "reports",
      "outputs": [
        {
          "internalType": "uint256",
          "name": "reportId",
          "type": "uint256"
        },
        {
          "internalType": "string",
          "name": "diagnosis",
          "type": "string"
        },
        {
          "internalType": "string",
          "name": "drugName",
          "type": "string"
        },
        {
          "internalType": "uint256",
          "name": "drugCount",
          "type": "uint256"
        },
        {
          "internalType": "address",
          "name": "patientAddress",
          "type": "address"
        },
        {
          "internalType": "address",
          "name": "doctorAddress",
          "type": "address"
        }
      ],
      "stateMutability": "view",
      "type": "function"
    },
    {
      "inputs": [
        {
          "internalType": "string",
          "name": "name",
          "type": "string"
        },
        {
          "internalType": "address",
          "name": "addr",
          "type": "address"
        },
        {
          "internalType": "string",
          "name": "spec",
          "type": "string"
        }
      ],
      "name": "addHospital",
      "outputs": [],
      "stateMutability": "nonpayable",
      "type": "function"
    },
    {
      "inputs": [
        {
          "internalType": "string",
          "name": "name",
          "type": "string"
        },
        {
          "internalType": "address",
          "name": "addr",
          "type": "address"
        },
        {
          "internalType": "string",
          "name": "desc",
          "type": "string"
        },
        {
          "internalType": "uint256",
          "name": "limit",
          "type": "uint256"
        },
        {
          "internalType": "address",
          "name": "insuranceAddr",
          "type": "address"
        },
        {
          "internalType": "address",
          "name": "patientAddr",
          "type": "address"
        }
      ],
      "name": "addInsurance",
      "outputs": [],
      "stateMutability": "nonpayable",
      "type": "function"
    },
    {
      "inputs": [
        {
          "internalType": "string",
          "name": "name",
          "type": "string"
        },
        {
          "internalType": "uint256",
          "name": "age",
          "type": "uint256"
        },
        {
          "internalType": "string",
          "name": "gender",
          "type": "string"
        },
        {
          "internalType": "string",
          "name": "height",
          "type": "string"
        },
        {
          "internalType": "string",
          "name": "weight",
          "type": "string"
        },
        {
          "internalType": "address",
          "name": "addr",
          "type": "address"
        },
        {
          "internalType": "uint256",
          "name": "phone",
          "type": "uint256"
        },
        {
          "internalType": "string",
          "name": "email",
          "type": "string"
        },
        {
          "internalType": "uint256",
          "name": "hospitalId",
          "type": "uint256"
        },
        {
          "internalType": "uint256",
          "name": "doctorId",
          "type": "uint256"
        },
        {
          "internalType": "uint256",
          "name": "policyNo",
          "type": "uint256"
        }
      ],
      "name": "addPatient",
      "outputs": [],
      "stateMutability": "nonpayable",
      "type": "function"
    },
    {
      "inputs": [
        {
          "internalType": "string",
          "name": "name",
          "type": "string"
        },
        {
          "internalType": "string",
          "name": "specialization",
          "type": "string"
        },
        {
          "internalType": "uint256",
          "name": "phone",
          "type": "uint256"
        },
        {
          "internalType": "address",
          "name": "addr",
          "type": "address"
        }
      ],
      "name": "addDoctor",
      "outputs": [],
      "stateMutability": "nonpayable",
      "type": "function"
    },
    {
      "inputs": [
        {
          "internalType": "string",
          "name": "drugName",
          "type": "string"
        },
        {
          "internalType": "uint256",
          "name": "drugCount",
          "type": "uint256"
        },
        {
          "internalType": "uint256",
          "name": "cost",
          "type": "uint256"
        },
        {
          "internalType": "address",
          "name": "patientAddr",
          "type": "address"
        },
        {
          "internalType": "address",
          "name": "pharmacyAddr",
          "type": "address"
        }
      ],
      "name": "addBill",
      "outputs": [],
      "stateMutability": "nonpayable",
      "type": "function"
    },
    {
      "inputs": [
        {
          "internalType": "string",
          "name": "diagnosis",
          "type": "string"
        },
        {
          "internalType": "string",
          "name": "drugName",
          "type": "string"
        },
        {
          "internalType": "uint256",
          "name": "drugCount",
          "type": "uint256"
        },
        {
          "internalType": "address",
          "name": "patientAddr",
          "type": "address"
        },
        {
          "internalType": "address",
          "name": "doctorAddr",
          "type": "address"
        }
      ],
      "name": "addReport",
      "outputs": [],
      "stateMutability": "nonpayable",
      "type": "function"
    },
    {
      "inputs": [
        {
          "internalType": "uint256",
          "name": "policyNo",
          "type": "uint256"
        },
        {
          "internalType": "address",
          "name": "patientAddr",
          "type": "address"
        },
        {
          "internalType": "address",
          "name": "doctorAddr",
          "type": "address"
        },
        {
          "internalType": "address",
          "name": "pharmacyAddr",
          "type": "address"
        },
        {
          "internalType": "address",
          "name": "hospitalAddr",
          "type": "address"
        }
      ],
      "name": "applyForInsurance",
      "outputs": [],
      "stateMutability": "nonpayable",
      "type": "function"
    },
    {
      "inputs": [
        {
          "internalType": "uint256",
          "name": "appliedId",
          "type": "uint256"
        }
      ],
      "name": "approveInsuranceByHospital",
      "outputs": [],
      "stateMutability": "nonpayable",
      "type": "function"
    },
    {
      "inputs": [
        {
          "internalType": "uint256",
          "name": "appliedId",
          "type": "uint256"
        }
      ],
      "name": "approveInsuranceByPharmacy",
      "outputs": [],
      "stateMutability": "nonpayable",
      "type": "function"
    },
    {
      "inputs": [
        {
          "internalType": "uint256",
          "name": "appliedId",
          "type": "uint256"
        }
      ],
      "name": "claimInsurance",
      "outputs": [],
      "stateMutability": "nonpayable",
      "type": "function"
    }
  ],
  "bytecode": "0x608060405234801561001057600080fd5b50336000806101000a81548173ffffffffffffffffffffffffffffffffffffffff021916908373ffffffffffffffffffffffffffffffffffffffff1602179055506137c9806100606000396000f3fe608060405234801561001057600080fd5b50600436106101725760003560e01c806381dc6fd2116100de578063a0edfd5b11610097578063c942adf711610071578063c942adf71461046f578063d90a815d146104a4578063f85920d8146104c0578063fa55565d146104dc57610172565b8063a0edfd5b1461041b578063b496e8f614610437578063b7c9710c1461045357610172565b806381dc6fd21461033857806385a814ea1461036a5780638da5cb5b1461038857806393119a83146103a65780639b4df840146103e1578063a0303c41146103fd57610172565b806341dc34121161013057806341dc341214610258578063521a6e941461027657806359fb49f9146102945780636efb1b84146102ca578063741bde5c146102fe57806378522bc41461031a57610172565b80626433bc14610177578063185c6f84146101af57806328808701146101cd57806328bdcde8146101e957806334a76f481461021e578063350dadb71461023a575b600080fd5b610191600480360381019061018c9190612ab0565b6104f8565b6040516101a69998979695949392919061341d565b60405180910390f35b6101b76105ed565b6040516101c49190613285565b60405180910390f35b6101e760048036038101906101e29190612a21565b6105f3565b005b61020360048036038101906101fe9190612ab0565b6107dc565b604051610215969594939291906133b5565b60405180910390f35b61023860048036038101906102339190612ab0565b6108e0565b005b6102426109aa565b60405161024f9190613285565b60405180910390f35b6102606109b0565b60405161026d9190613285565b60405180910390f35b61027e6109b6565b60405161028b9190613285565b60405180910390f35b6102ae60048036038101906102a99190612ab0565b6109bc565b6040516102c197969594939291906132c9565b60405180910390f35b6102e460048036038101906102df9190612ab0565b610b6e565b6040516102f5959493929190613007565b60405180910390f35b61031860048036038101906103139190612812565b610cd4565b005b610322610ed0565b60405161032f9190613285565b60405180910390f35b610352600480360381019061034d9190612ab0565b610ed6565b60405161036193929190612fc2565b60405180910390f35b610372611030565b60405161037f9190613285565b60405180910390f35b610390611036565b60405161039d9190612fa7565b60405180910390f35b6103c060048036038101906103bb9190612ab0565b61105a565b6040516103d89c9b9a99989796959493929190613068565b60405180910390f35b6103fb60048036038101906103f69190612ad9565b611382565b005b610405611755565b6040516104129190613285565b60405180910390f35b61043560048036038101906104309190612647565b61175b565b005b610451600480360381019061044c91906128b9565b6118d0565b005b61046d6004803603810190610468919061277f565b611c17565b005b61048960048036038101906104849190612ab0565b611daf565b60405161049b96959493929190613346565b60405180910390f35b6104be60048036038101906104b99190612ab0565b611f3b565b005b6104da60048036038101906104d59190612ab0565b612005565b005b6104f660048036038101906104f191906126c6565b612141565b005b600d6020528060005260406000206000915090508060000154908060010154908060020160009054906101000a900473ffffffffffffffffffffffffffffffffffffffff16908060030160009054906101000a900473ffffffffffffffffffffffffffffffffffffffff16908060040160009054906101000a900473ffffffffffffffffffffffffffffffffffffffff16908060050160009054906101000a900473ffffffffffffffffffffffffffffffffffffffff16908060050160149054906101000a900460ff16908060050160159054906101000a900460ff16908060050160169054906101000a900460ff16905089565b600c5481565b60008054906101000a900473ffffffffffffffffffffffffffffffffffffffff1673ffffffffffffffffffffffffffffffffffffffff163373ffffffffffffffffffffffffffffffffffffffff1614610681576040517f08c379a000000000000000000000000000000000000000000000000000000000815260040161067890613185565b60405180910390fd5b600a6000815480929190610694906135e3565b91905055506040518060c00160405280600a5481526020018681526020018581526020018481526020018373ffffffffffffffffffffffffffffffffffffffff1681526020018273ffffffffffffffffffffffffffffffffffffffff1681525060096000600a54815260200190815260200160002060008201518160000155602082015181600101908051906020019061072f929190612512565b50604082015181600201556060820151816003015560808201518160040160006101000a81548173ffffffffffffffffffffffffffffffffffffffff021916908373ffffffffffffffffffffffffffffffffffffffff16021790555060a08201518160050160006101000a81548173ffffffffffffffffffffffffffffffffffffffff021916908373ffffffffffffffffffffffffffffffffffffffff1602179055509050505050505050565b6009602052806000526040600020600091509050806000015490806001018054610805906135b1565b80601f0160208091040260200160405190810160405280929190818152602001828054610831906135b1565b801561087e5780601f106108535761010080835404028352916020019161087e565b820191906000526020600020905b81548152906001019060200180831161086157829003601f168201915b5050505050908060020154908060030154908060040160009054906101000a900473ffffffffffffffffffffffffffffffffffffffff16908060050160009054906101000a900473ffffffffffffffffffffffffffffffffffffffff16905086565b6000600d600083815260200190815260200160002090503373ffffffffffffffffffffffffffffffffffffffff168160050160009054906101000a900473ffffffffffffffffffffffffffffffffffffffff1673ffffffffffffffffffffffffffffffffffffffff1614610989576040517f08c379a000000000000000000000000000000000000000000000000000000000815260040161098090613225565b60405180910390fd5b60018160050160146101000a81548160ff0219169083151502179055505050565b60025481565b600a5481565b60045481565b60036020528060005260406000206000915090508060000154908060010180546109e5906135b1565b80601f0160208091040260200160405190810160405280929190818152602001828054610a11906135b1565b8015610a5e5780601f10610a3357610100808354040283529160200191610a5e565b820191906000526020600020905b815481529060010190602001808311610a4157829003601f168201915b5050505050908060020160009054906101000a900473ffffffffffffffffffffffffffffffffffffffff1690806003018054610a99906135b1565b80601f0160208091040260200160405190810160405280929190818152602001828054610ac5906135b1565b8015610b125780601f10610ae757610100808354040283529160200191610b12565b820191906000526020600020905b815481529060010190602001808311610af557829003601f168201915b5050505050908060040154908060050160009054906101000a900473ffffffffffffffffffffffffffffffffffffffff16908060060160009054906101000a900473ffffffffffffffffffffffffffffffffffffffff16905087565b6007602052806000526040600020600091509050806000018054610b91906135b1565b80601f0160208091040260200160405190810160405280929190818152602001828054610bbd906135b1565b8015610c0a5780601f10610bdf57610100808354040283529160200191610c0a565b820191906000526020600020905b815481529060010190602001808311610bed57829003601f168201915b505050505090806001015490806002018054610c25906135b1565b80601f0160208091040260200160405190810160405280929190818152602001828054610c51906135b1565b8015610c9e5780601f10610c7357610100808354040283529160200191610c9e565b820191906000526020600020905b815481529060010190602001808311610c8157829003601f168201915b5050505050908060030154908060040160009054906101000a900473ffffffffffffffffffffffffffffffffffffffff16905085565b60008054906101000a900473ffffffffffffffffffffffffffffffffffffffff1673ffffffffffffffffffffffffffffffffffffffff163373ffffffffffffffffffffffffffffffffffffffff1614610d62576040517f08c379a0000000000000000000000000000000000000000000000000000000008152600401610d5990613185565b60405180910390fd5b600c6000815480929190610d75906135e3565b91905055506040518060c00160405280600c5481526020018681526020018581526020018481526020018373ffffffffffffffffffffffffffffffffffffffff1681526020018273ffffffffffffffffffffffffffffffffffffffff16815250600b6000600c548152602001908152602001600020600082015181600001556020820151816001019080519060200190610e10929190612512565b506040820151816002019080519060200190610e2d929190612512565b506060820151816003015560808201518160040160006101000a81548173ffffffffffffffffffffffffffffffffffffffff021916908373ffffffffffffffffffffffffffffffffffffffff16021790555060a08201518160050160006101000a81548173ffffffffffffffffffffffffffffffffffffffff021916908373ffffffffffffffffffffffffffffffffffffffff1602179055509050505050505050565b60085481565b6001602052806000526040600020600091509050806000018054610ef9906135b1565b80601f0160208091040260200160405190810160405280929190818152602001828054610f25906135b1565b8015610f725780601f10610f4757610100808354040283529160200191610f72565b820191906000526020600020905b815481529060010190602001808311610f5557829003601f168201915b5050505050908060010160009054906101000a900473ffffffffffffffffffffffffffffffffffffffff1690806002018054610fad906135b1565b80601f0160208091040260200160405190810160405280929190818152602001828054610fd9906135b1565b80156110265780601f10610ffb57610100808354040283529160200191611026565b820191906000526020600020905b81548152906001019060200180831161100957829003601f168201915b5050505050905083565b600e5481565b60008054906101000a900473ffffffffffffffffffffffffffffffffffffffff1681565b600560205280600052604060002060009150905080600001805461107d906135b1565b80601f01602080910402602001604051908101604052809291908181526020018280546110a9906135b1565b80156110f65780601f106110cb576101008083540402835291602001916110f6565b820191906000526020600020905b8154815290600101906020018083116110d957829003601f168201915b505050505090806001015490806002015490806003018054611117906135b1565b80601f0160208091040260200160405190810160405280929190818152602001828054611143906135b1565b80156111905780601f1061116557610100808354040283529160200191611190565b820191906000526020600020905b81548152906001019060200180831161117357829003601f168201915b5050505050908060040180546111a5906135b1565b80601f01602080910402602001604051908101604052809291908181526020018280546111d1906135b1565b801561121e5780601f106111f35761010080835404028352916020019161121e565b820191906000526020600020905b81548152906001019060200180831161120157829003601f168201915b505050505090806005018054611233906135b1565b80601f016020809104026020016040519081016040528092919081815260200182805461125f906135b1565b80156112ac5780601f10611281576101008083540402835291602001916112ac565b820191906000526020600020905b81548152906001019060200180831161128f57829003601f168201915b5050505050908060060160009054906101000a900473ffffffffffffffffffffffffffffffffffffffff16908060070154908060080180546112ed906135b1565b80601f0160208091040260200160405190810160405280929190818152602001828054611319906135b1565b80156113665780601f1061133b57610100808354040283529160200191611366565b820191906000526020600020905b81548152906001019060200180831161134957829003601f168201915b50505050509080600901549080600a01549080600b015490508c565b8373ffffffffffffffffffffffffffffffffffffffff163373ffffffffffffffffffffffffffffffffffffffff16146113f0576040517f08c379a00000000000000000000000000000000000000000000000000000000081526004016113e7906131c5565b60405180910390fd5b600080600190505b60065481116114a8578573ffffffffffffffffffffffffffffffffffffffff166005600083815260200190815260200160002060060160009054906101000a900473ffffffffffffffffffffffffffffffffffffffff1673ffffffffffffffffffffffffffffffffffffffff1614801561148757508660056000838152602001908152602001600020600b0154145b1561149557600191506114a8565b80806114a0906135e3565b9150506113f8565b50806114e9576040517f08c379a00000000000000000000000000000000000000000000000000000000081526004016114e0906131e5565b60405180910390fd5b600e60008154809291906114fc906135e3565b9190505550604051806101200160405280600e5481526020018781526020018673ffffffffffffffffffffffffffffffffffffffff1681526020018573ffffffffffffffffffffffffffffffffffffffff1681526020018473ffffffffffffffffffffffffffffffffffffffff1681526020018373ffffffffffffffffffffffffffffffffffffffff16815260200160001515815260200160001515815260200160001515815250600d6000600e548152602001908152602001600020600082015181600001556020820151816001015560408201518160020160006101000a81548173ffffffffffffffffffffffffffffffffffffffff021916908373ffffffffffffffffffffffffffffffffffffffff16021790555060608201518160030160006101000a81548173ffffffffffffffffffffffffffffffffffffffff021916908373ffffffffffffffffffffffffffffffffffffffff16021790555060808201518160040160006101000a81548173ffffffffffffffffffffffffffffffffffffffff021916908373ffffffffffffffffffffffffffffffffffffffff16021790555060a08201518160050160006101000a81548173ffffffffffffffffffffffffffffffffffffffff021916908373ffffffffffffffffffffffffffffffffffffffff16021790555060c08201518160050160146101000a81548160ff02191690831515021790555060e08201518160050160156101000a81548160ff0219169083151502179055506101008201518160050160166101000a81548160ff021916908315150217905550905050505050505050565b60065481565b60008054906101000a900473ffffffffffffffffffffffffffffffffffffffff1673ffffffffffffffffffffffffffffffffffffffff163373ffffffffffffffffffffffffffffffffffffffff16146117e9576040517f08c379a00000000000000000000000000000000000000000000000000000000081526004016117e090613185565b60405180910390fd5b600260008154809291906117fc906135e3565b919050555060405180606001604052808481526020018373ffffffffffffffffffffffffffffffffffffffff168152602001828152506001600060025481526020019081526020016000206000820151816000019080519060200190611863929190612512565b5060208201518160010160006101000a81548173ffffffffffffffffffffffffffffffffffffffff021916908373ffffffffffffffffffffffffffffffffffffffff16021790555060408201518160020190805190602001906118c7929190612512565b50905050505050565b60008054906101000a900473ffffffffffffffffffffffffffffffffffffffff1673ffffffffffffffffffffffffffffffffffffffff163373ffffffffffffffffffffffffffffffffffffffff161461195e576040517f08c379a000000000000000000000000000000000000000000000000000000000815260040161195590613185565b60405180910390fd5b600080600190505b6004548111611a16578773ffffffffffffffffffffffffffffffffffffffff166003600083815260200190815260200160002060060160009054906101000a900473ffffffffffffffffffffffffffffffffffffffff1673ffffffffffffffffffffffffffffffffffffffff161480156119f55750826003600083815260200190815260200160002060000154145b15611a035760019150611a16565b8080611a0e906135e3565b915050611966565b5080611a57576040517f08c379a0000000000000000000000000000000000000000000000000000000008152600401611a4e90613265565b60405180910390fd5b60066000815480929190611a6a906135e3565b91905055506040518061018001604052808d815260200160065481526020018c81526020018b81526020018a81526020018981526020018873ffffffffffffffffffffffffffffffffffffffff168152602001878152602001868152602001858152602001848152602001838152506005600060065481526020019081526020016000206000820151816000019080519060200190611b0a929190612512565b5060208201518160010155604082015181600201556060820151816003019080519060200190611b3b929190612512565b506080820151816004019080519060200190611b58929190612512565b5060a0820151816005019080519060200190611b75929190612512565b5060c08201518160060160006101000a81548173ffffffffffffffffffffffffffffffffffffffff021916908373ffffffffffffffffffffffffffffffffffffffff16021790555060e08201518160070155610100820151816008019080519060200190611be4929190612512565b50610120820151816009015561014082015181600a015561016082015181600b0155905050505050505050505050505050565b60008054906101000a900473ffffffffffffffffffffffffffffffffffffffff1673ffffffffffffffffffffffffffffffffffffffff163373ffffffffffffffffffffffffffffffffffffffff1614611ca5576040517f08c379a0000000000000000000000000000000000000000000000000000000008152600401611c9c90613185565b60405180910390fd5b60086000815480929190611cb8906135e3565b91905055506040518060a0016040528085815260200160085481526020018481526020018381526020018273ffffffffffffffffffffffffffffffffffffffff168152506007600060085481526020019081526020016000206000820151816000019080519060200190611d2d929190612512565b50602082015181600101556040820151816002019080519060200190611d54929190612512565b506060820151816003015560808201518160040160006101000a81548173ffffffffffffffffffffffffffffffffffffffff021916908373ffffffffffffffffffffffffffffffffffffffff16021790555090505050505050565b600b602052806000526040600020600091509050806000015490806001018054611dd8906135b1565b80601f0160208091040260200160405190810160405280929190818152602001828054611e04906135b1565b8015611e515780601f10611e2657610100808354040283529160200191611e51565b820191906000526020600020905b815481529060010190602001808311611e3457829003601f168201915b505050505090806002018054611e66906135b1565b80601f0160208091040260200160405190810160405280929190818152602001828054611e92906135b1565b8015611edf5780601f10611eb457610100808354040283529160200191611edf565b820191906000526020600020905b815481529060010190602001808311611ec257829003601f168201915b5050505050908060030154908060040160009054906101000a900473ffffffffffffffffffffffffffffffffffffffff16908060050160009054906101000a900473ffffffffffffffffffffffffffffffffffffffff16905086565b6000600d600083815260200190815260200160002090503373ffffffffffffffffffffffffffffffffffffffff168160040160009054906101000a900473ffffffffffffffffffffffffffffffffffffffff1673ffffffffffffffffffffffffffffffffffffffff1614611fe4576040517f08c379a0000000000000000000000000000000000000000000000000000000008152600401611fdb90613245565b60405180910390fd5b60018160050160156101000a81548160ff0219169083151502179055505050565b6000600d600083815260200190815260200160002090508060050160149054906101000a900460ff16801561204857508060050160159054906101000a900460ff165b612087576040517f08c379a000000000000000000000000000000000000000000000000000000000815260040161207e90613165565b60405180910390fd5b8060050160169054906101000a900460ff16156120d9576040517f08c379a00000000000000000000000000000000000000000000000000000000081526004016120d0906131a5565b60405180910390fd5b6000816001015411612120576040517f08c379a000000000000000000000000000000000000000000000000000000000815260040161211790613205565b60405180910390fd5b60018160050160166101000a81548160ff0219169083151502179055505050565b60008054906101000a900473ffffffffffffffffffffffffffffffffffffffff1673ffffffffffffffffffffffffffffffffffffffff163373ffffffffffffffffffffffffffffffffffffffff16146121cf576040517f08c379a00000000000000000000000000000000000000000000000000000000081526004016121c690613185565b60405180910390fd5b6000600190505b6004548111612297578173ffffffffffffffffffffffffffffffffffffffff166003600083815260200190815260200160002060060160009054906101000a900473ffffffffffffffffffffffffffffffffffffffff1673ffffffffffffffffffffffffffffffffffffffff161415612284576040517f08c379a000000000000000000000000000000000000000000000000000000000815260040161227b90613145565b60405180910390fd5b808061228f906135e3565b9150506121d6565b5060006122a3826124b2565b9050600460008154809291906122b8906135e3565b91905055506040518060e001604052808281526020018881526020018773ffffffffffffffffffffffffffffffffffffffff1681526020018681526020018581526020018473ffffffffffffffffffffffffffffffffffffffff1681526020018373ffffffffffffffffffffffffffffffffffffffff1681525060036000600454815260200190815260200160002060008201518160000155602082015181600101908051906020019061236d929190612512565b5060408201518160020160006101000a81548173ffffffffffffffffffffffffffffffffffffffff021916908373ffffffffffffffffffffffffffffffffffffffff16021790555060608201518160030190805190602001906123d1929190612512565b506080820151816004015560a08201518160050160006101000a81548173ffffffffffffffffffffffffffffffffffffffff021916908373ffffffffffffffffffffffffffffffffffffffff16021790555060c08201518160060160006101000a81548173ffffffffffffffffffffffffffffffffffffffff021916908373ffffffffffffffffffffffffffffffffffffffff1602179055509050506004547f3b50f6e7a7ac623eab47902e34c37911d398209d7f26352499babafb1cbc063a82846040516124a19291906132a0565b60405180910390a250505050505050565b600080620f4240428433446004546040516020016124d4959493929190612f48565b6040516020818303038152906040528051906020012060001c6124f7919061365a565b905060008114612507578061250a565b60015b915050919050565b82805461251e906135b1565b90600052602060002090601f0160209004810192826125405760008555612587565b82601f1061255957805160ff1916838001178555612587565b82800160010185558215612587579182015b8281111561258657825182559160200191906001019061256b565b5b5090506125949190612598565b5090565b5b808211156125b1576000816000905550600101612599565b5090565b60006125c86125c3846134db565b6134aa565b9050828152602081018484840111156125e057600080fd5b6125eb84828561356f565b509392505050565b60008135905061260281613765565b92915050565b600082601f83011261261957600080fd5b81356126298482602086016125b5565b91505092915050565b6000813590506126418161377c565b92915050565b60008060006060848603121561265c57600080fd5b600084013567ffffffffffffffff81111561267657600080fd5b61268286828701612608565b9350506020612693868287016125f3565b925050604084013567ffffffffffffffff8111156126b057600080fd5b6126bc86828701612608565b9150509250925092565b60008060008060008060c087890312156126df57600080fd5b600087013567ffffffffffffffff8111156126f957600080fd5b61270589828a01612608565b965050602061271689828a016125f3565b955050604087013567ffffffffffffffff81111561273357600080fd5b61273f89828a01612608565b945050606061275089828a01612632565b935050608061276189828a016125f3565b92505060a061277289828a016125f3565b9150509295509295509295565b6000806000806080858703121561279557600080fd5b600085013567ffffffffffffffff8111156127af57600080fd5b6127bb87828801612608565b945050602085013567ffffffffffffffff8111156127d857600080fd5b6127e487828801612608565b93505060406127f587828801612632565b9250506060612806878288016125f3565b91505092959194509250565b600080600080600060a0868803121561282a57600080fd5b600086013567ffffffffffffffff81111561284457600080fd5b61285088828901612608565b955050602086013567ffffffffffffffff81111561286d57600080fd5b61287988828901612608565b945050604061288a88828901612632565b935050606061289b888289016125f3565b92505060806128ac888289016125f3565b9150509295509295909350565b60008060008060008060008060008060006101608c8e0312156128db57600080fd5b60008c013567ffffffffffffffff8111156128f557600080fd5b6129018e828f01612608565b9b505060206129128e828f01612632565b9a505060408c013567ffffffffffffffff81111561292f57600080fd5b61293b8e828f01612608565b99505060608c013567ffffffffffffffff81111561295857600080fd5b6129648e828f01612608565b98505060808c013567ffffffffffffffff81111561298157600080fd5b61298d8e828f01612608565b97505060a061299e8e828f016125f3565b96505060c06129af8e828f01612632565b95505060e08c013567ffffffffffffffff8111156129cc57600080fd5b6129d88e828f01612608565b9450506101006129ea8e828f01612632565b9350506101206129fc8e828f01612632565b925050610140612a0e8e828f01612632565b9150509295989b509295989b9093969950565b600080600080600060a08688031215612a3957600080fd5b600086013567ffffffffffffffff811115612a5357600080fd5b612a5f88828901612608565b9550506020612a7088828901612632565b9450506040612a8188828901612632565b9350506060612a92888289016125f3565b9250506080612aa3888289016125f3565b9150509295509295909350565b600060208284031215612ac257600080fd5b6000612ad084828501612632565b91505092915050565b600080600080600060a08688031215612af157600080fd5b6000612aff88828901612632565b9550506020612b10888289016125f3565b9450506040612b21888289016125f3565b9350506060612b32888289016125f3565b9250506080612b43888289016125f3565b9150509295509295909350565b612b5981613527565b82525050565b612b70612b6b82613527565b61362c565b82525050565b612b7f81613539565b82525050565b6000612b908261350b565b612b9a8185613516565b9350612baa81856020860161357e565b612bb381613747565b840191505092915050565b6000612bcb602d83613516565b91507f546869732070617469656e7420616c72656164792068617320616e20696e737560008301527f72616e636520706f6c6963792e000000000000000000000000000000000000006020830152604082019050919050565b6000612c31603983613516565b91507f496e737572616e6365206d75737420626520617070726f76656420627920626f60008301527f746820686f73706974616c20616e6420706861726d6163792e000000000000006020830152604082019050919050565b6000612c97602183613516565b91507f4f6e6c79206f776e65722063616e2063616c6c20746869732066756e6374696f60008301527f6e000000000000000000000000000000000000000000000000000000000000006020830152604082019050919050565b6000612cfd601d83613516565b91507f496e737572616e636520697320616c726561647920636c61696d65642e0000006000830152602082019050919050565b6000612d3d602983613516565b91507f4f6e6c79207468652070617469656e742063616e206170706c7920666f72206960008301527f6e737572616e63652e00000000000000000000000000000000000000000000006020830152604082019050919050565b6000612da3602583613516565b91507f50617469656e7420706f6c696379206e756d62657220646f6573206e6f74206d60008301527f617463682e0000000000000000000000000000000000000000000000000000006020830152604082019050919050565b6000612e09601683613516565b91507f496e76616c696420706f6c696379206e756d6265722e000000000000000000006000830152602082019050919050565b6000612e49601e83613516565b91507f4f6e6c792074686520686f73706974616c2063616e20617070726f76652e00006000830152602082019050919050565b6000612e89601e83613516565b91507f4f6e6c792074686520706861726d6163792063616e20617070726f76652e00006000830152602082019050919050565b6000612ec9603783613516565b91507f496e76616c6964206f72206e6f6e2d6578697374656e7420706f6c696379206e60008301527f756d62657220666f7220746869732070617469656e742e0000000000000000006020830152604082019050919050565b612f2b81613565565b82525050565b612f42612f3d82613565565b613650565b82525050565b6000612f548288612f31565b602082019150612f648287612b5f565b601482019150612f748286612b5f565b601482019150612f848285612f31565b602082019150612f948284612f31565b6020820191508190509695505050505050565b6000602082019050612fbc6000830184612b50565b92915050565b60006060820190508181036000830152612fdc8186612b85565b9050612feb6020830185612b50565b8181036040830152612ffd8184612b85565b9050949350505050565b600060a08201905081810360008301526130218188612b85565b90506130306020830187612f22565b81810360408301526130428186612b85565b90506130516060830185612f22565b61305e6080830184612b50565b9695505050505050565b6000610180820190508181036000830152613083818f612b85565b9050613092602083018e612f22565b61309f604083018d612f22565b81810360608301526130b1818c612b85565b905081810360808301526130c5818b612b85565b905081810360a08301526130d9818a612b85565b90506130e860c0830189612b50565b6130f560e0830188612f22565b8181036101008301526131088187612b85565b9050613118610120830186612f22565b613126610140830185612f22565b613134610160830184612f22565b9d9c50505050505050505050505050565b6000602082019050818103600083015261315e81612bbe565b9050919050565b6000602082019050818103600083015261317e81612c24565b9050919050565b6000602082019050818103600083015261319e81612c8a565b9050919050565b600060208201905081810360008301526131be81612cf0565b9050919050565b600060208201905081810360008301526131de81612d30565b9050919050565b600060208201905081810360008301526131fe81612d96565b9050919050565b6000602082019050818103600083015261321e81612dfc565b9050919050565b6000602082019050818103600083015261323e81612e3c565b9050919050565b6000602082019050818103600083015261325e81612e7c565b9050919050565b6000602082019050818103600083015261327e81612ebc565b9050919050565b600060208201905061329a6000830184612f22565b92915050565b60006040820190506132b56000830185612f22565b6132c26020830184612b50565b9392505050565b600060e0820190506132de600083018a612f22565b81810360208301526132f08189612b85565b90506132ff6040830188612b50565b81810360608301526133118187612b85565b90506133206080830186612f22565b61332d60a0830185612b50565b61333a60c0830184612b50565b98975050505050505050565b600060c08201905061335b6000830189612f22565b818103602083015261336d8188612b85565b905081810360408301526133818187612b85565b90506133906060830186612f22565b61339d6080830185612b50565b6133aa60a0830184612b50565b979650505050505050565b600060c0820190506133ca6000830189612f22565b81810360208301526133dc8188612b85565b90506133eb6040830187612f22565b6133f86060830186612f22565b6134056080830185612b50565b61341260a0830184612b50565b979650505050505050565b600061012082019050613433600083018c612f22565b613440602083018b612f22565b61344d604083018a612b50565b61345a6060830189612b50565b6134676080830188612b50565b61347460a0830187612b50565b61348160c0830186612b76565b61348e60e0830185612b76565b61349c610100830184612b76565b9a9950505050505050505050565b6000604051905081810181811067ffffffffffffffff821117156134d1576134d0613718565b5b8060405250919050565b600067ffffffffffffffff8211156134f6576134f5613718565b5b601f19601f8301169050602081019050919050565b600081519050919050565b600082825260208201905092915050565b600061353282613545565b9050919050565b60008115159050919050565b600073ffffffffffffffffffffffffffffffffffffffff82169050919050565b6000819050919050565b82818337600083830152505050565b60005b8381101561359c578082015181840152602081019050613581565b838111156135ab576000848401525b50505050565b600060028204905060018216806135c957607f821691505b602082108114156135dd576135dc6136e9565b5b50919050565b60006135ee82613565565b91507fffffffffffffffffffffffffffffffffffffffffffffffffffffffffffffffff8214156136215761362061368b565b5b600182019050919050565b60006136378261363e565b9050919050565b600061364982613758565b9050919050565b6000819050919050565b600061366582613565565b915061367083613565565b9250826136805761367f6136ba565b5b828206905092915050565b7f4e487b7100000000000000000000000000000000000000000000000000000000600052601160045260246000fd5b7f4e487b7100000000000000000000000000000000000000000000000000000000600052601260045260246000fd5b7f4e487b7100000000000000000000000000000000000000000000000000000000600052602260045260246000fd5b7f4e487b7100000000000000000000000000000000000000000000000000000000600052604160045260246000fd5b6000601f19601f8301169050919050565b60008160601b9050919050565b61376e81613527565b811461377957600080fd5b50565b61378581613565565b811461379057600080fd5b5056fea2646970667358221220ab8f3b310ce8fe740d932e1b8d7bc265629bb813463a749f224d29a51bfa38f464736f6c63430008000033",
  "immutableReferences": {},
  "source": "// SPDX-License-Identifier: MIT\r\npragma solidity ^0.8.0;\r\n\r\ncontract HealthcareSystem {\r\n    address public owner;\r\n\r\n    constructor() {\r\n        owner = msg.sender;\r\n    }\r\n\r\n    modifier onlyOwner() {\r\n        require(msg.sender == owner, \"Only owner can call this function\");\r\n        _;\r\n    }\r\n\r\n    // --- Hospital ---\r\n    struct Hospital {\r\n        string hospitalName;\r\n        address hospitalAddress;\r\n        string hospitalSpec;\r\n    }\r\n\r\n    mapping(uint => Hospital) public hospitals;\r\n    uint public hospitalCount;\r\n\r\n    function addHospital(string memory name, address addr, string memory spec) public onlyOwner {\r\n        hospitalCount++;\r\n        hospitals[hospitalCount] = Hospital(name, addr, spec);\r\n    }\r\n\r\n    // --- Insurance ---\r\n    struct Insurance {\r\n        uint policyNo;\r\n        string insurerName;\r\n        address insurerAddress;\r\n        string description;\r\n        uint policyLimit;\r\n        address insuranceAddress;\r\n        address patientAddress;\r\n    }\r\n\r\n    mapping(uint => Insurance) public insurances;\r\n    uint public insuranceCount;\r\n\r\n    event InsuranceAdded(uint indexed insuranceId, uint policyNo, address patientAddress);\r\n\r\n    function generateRandomPolicyNumber(address patientAddr) private view returns (uint) {\r\n        uint policyNo = uint(\r\n            keccak256(\r\n                abi.encodePacked(block.timestamp, patientAddr, msg.sender, block.difficulty, insuranceCount)\r\n            )\r\n        ) % 1000000;\r\n\r\n        return policyNo == 0 ? 1 : policyNo;\r\n    }\r\n\r\n    function addInsurance(\r\n        string memory name,\r\n        address addr,\r\n        string memory desc,\r\n        uint limit,\r\n        address insuranceAddr,\r\n        address patientAddr\r\n    ) public onlyOwner {\r\n        for (uint i = 1; i <= insuranceCount; i++) {\r\n            if (insurances[i].patientAddress == patientAddr) {\r\n                revert(\"This patient already has an insurance policy.\");\r\n            }\r\n        }\r\n\r\n        uint policyNo = generateRandomPolicyNumber(patientAddr);\r\n        insuranceCount++;\r\n        insurances[insuranceCount] = Insurance(policyNo, name, addr, desc, limit, insuranceAddr, patientAddr);\r\n\r\n        emit InsuranceAdded(insuranceCount, policyNo, patientAddr);\r\n    }\r\n\r\n    // --- Patient ---\r\n    struct Patient {\r\n        string name;\r\n        uint patientId;\r\n        uint age;\r\n        string gender;\r\n        string height;\r\n        string weight;\r\n        address patientAddress;\r\n        uint phone;\r\n        string email;\r\n        uint hospitalId;\r\n        uint doctorId;\r\n        uint policyNo;\r\n    }\r\n\r\n    mapping(uint => Patient) public patients;\r\n    uint public patientCount;\r\n\r\n    function addPatient(\r\n        string memory name,\r\n        uint age,\r\n        string memory gender,\r\n        string memory height,\r\n        string memory weight,\r\n        address addr,\r\n        uint phone,\r\n        string memory email,\r\n        uint hospitalId,\r\n        uint doctorId,\r\n        uint policyNo\r\n    ) public onlyOwner {\r\n        bool validPolicy = false;\r\n        for (uint i = 1; i <= insuranceCount; i++) {\r\n            if (insurances[i].patientAddress == addr && insurances[i].policyNo == policyNo) {\r\n                validPolicy = true;\r\n                break;\r\n            }\r\n        }\r\n        require(validPolicy, \"Invalid or non-existent policy number for this patient.\");\r\n\r\n        patientCount++;\r\n        patients[patientCount] = Patient(name, patientCount, age, gender, height, weight, addr, phone, email, hospitalId, doctorId, policyNo);\r\n    }\r\n\r\n    // --- Doctor ---\r\n    struct Doctor {\r\n        string name;\r\n        uint doctorId;\r\n        string specialization;\r\n        uint phone;\r\n        address doctorAddress;\r\n    }\r\n\r\n    mapping(uint => Doctor) public doctors;\r\n    uint public doctorCount;\r\n\r\n    function addDoctor(\r\n        string memory name,\r\n        string memory specialization,\r\n        uint phone,\r\n        address addr\r\n    ) public onlyOwner {\r\n        doctorCount++;\r\n        doctors[doctorCount] = Doctor(name, doctorCount, specialization, phone, addr);\r\n    }\r\n\r\n    // --- Bill ---\r\n    struct Bill {\r\n        uint billId;\r\n        string drugName;\r\n        uint drugCount;\r\n        uint cost;\r\n        address patientAddress;\r\n        address pharmacyAddress;\r\n    }\r\n\r\n    mapping(uint => Bill) public bills;\r\n    uint public billCount;\r\n\r\n    function addBill(\r\n        string memory drugName,\r\n        uint drugCount,\r\n        uint cost,\r\n        address patientAddr,\r\n        address pharmacyAddr\r\n    ) public onlyOwner {\r\n        billCount++;\r\n        bills[billCount] = Bill(billCount, drugName, drugCount, cost, patientAddr, pharmacyAddr);\r\n    }\r\n\r\n    // --- Report ---\r\n    struct Report {\r\n        uint reportId;\r\n        string diagnosis;\r\n        string drugName;\r\n        uint drugCount;\r\n        address patientAddress;\r\n        address doctorAddress;\r\n    }\r\n\r\n    mapping(uint => Report) public reports;\r\n    uint public reportCount;\r\n\r\n    function addReport(\r\n        string memory diagnosis,\r\n        string memory drugName,\r\n        uint drugCount,\r\n        address patientAddr,\r\n        address doctorAddr\r\n    ) public onlyOwner {\r\n        reportCount++;\r\n        reports[reportCount] = Report(reportCount, diagnosis, drugName, drugCount, patientAddr, doctorAddr);\r\n    }\r\n\r\n    // --- Applied Insurance ---\r\n    struct AppliedInsurance {\r\n        uint appliedId;\r\n        uint policyNo;\r\n        address patientAddr;\r\n        address doctorAddr;\r\n        address pharmacyAddr;\r\n        address hospitalAddr;\r\n        bool hospitalApproval;\r\n        bool pharmacyApproval;\r\n        bool isClaimed;\r\n    }\r\n\r\n    mapping(uint => AppliedInsurance) public appliedInsurances;\r\n    uint public appliedInsuranceCount;\r\n\r\n   function applyForInsurance(\r\n    uint policyNo,\r\n    address patientAddr,\r\n    address doctorAddr,\r\n    address pharmacyAddr,\r\n    address hospitalAddr\r\n) public {\r\n    require(msg.sender == patientAddr, \"Only the patient can apply for insurance.\");\r\n\r\n    bool isValidPolicy = false;\r\n    for (uint i = 1; i <= patientCount; i++) {\r\n        if (patients[i].patientAddress == patientAddr && patients[i].policyNo == policyNo) {\r\n            isValidPolicy = true;\r\n            break;\r\n        }\r\n    }\r\n    require(isValidPolicy, \"Patient policy number does not match.\");\r\n\r\n    appliedInsuranceCount++;\r\n    appliedInsurances[appliedInsuranceCount] = AppliedInsurance(\r\n        appliedInsuranceCount,\r\n        policyNo,\r\n        patientAddr,\r\n        doctorAddr,\r\n        pharmacyAddr,\r\n        hospitalAddr,\r\n        false,\r\n        false,\r\n        false\r\n    );\r\n}\r\n\r\n    function approveInsuranceByHospital(uint appliedId) public {\r\n        AppliedInsurance storage applied = appliedInsurances[appliedId];\r\n        require(applied.hospitalAddr == msg.sender, \"Only the hospital can approve.\");\r\n        applied.hospitalApproval = true;\r\n    }\r\n\r\n    function approveInsuranceByPharmacy(uint appliedId) public {\r\n        AppliedInsurance storage applied = appliedInsurances[appliedId];\r\n        require(applied.pharmacyAddr == msg.sender, \"Only the pharmacy can approve.\");\r\n        applied.pharmacyApproval = true;\r\n    }\r\n\r\n    function claimInsurance(uint appliedId) public {\r\n        AppliedInsurance storage applied = appliedInsurances[appliedId];\r\n        require(applied.hospitalApproval && applied.pharmacyApproval, \"Insurance must be approved by both hospital and pharmacy.\");\r\n        require(!applied.isClaimed, \"Insurance is already claimed.\");\r\n        require(applied.policyNo > 0, \"Invalid policy number.\");\r\n        applied.isClaimed = true;\r\n    }\r\n}",
  "sourcePath": "C:\\Users\\cse\\Desktop\\Health\\contracts\\HealthcareSystem.sol",
  "compiler": {
    "name": "solc",
    "version": "0.8.0+commit.c7dfd78e.Emscripten.clang"
  },
  "schemaVersion": "3.4.16",
  "updatedAt": "2025-07-15T07:27:49.119Z",
  "devdoc": {
    "kind": "dev",
    "methods": {},
    "version": 1
  },
  "userdoc": {
    "kind": "user",
    "methods": {},
    "version": 1
  }
}